:020000040000FA
:1000000000009C31CF2C00348A0120000B110030FD
:100010002B002B04031D14280830943183248031D5
:1000200001302B00AB00AC282B002B08013A031D3C
:100030007B280230AB0021001C082900DC00D9001D
:10004000DA01DB0121001B082900D900DA01590877
:10005000DB040030DC0403105C0CDA005B0CD9001C
:100060000310DA0CD90C59082B00A7002B00290823
:100070002B00AA002B0028082B00A9002B00A801A8
:10008000D2302B0027020318482801302B00A8008B
:1000900096302B0027020318502804302B00A800AC
:1000A00064302B0027020318582802302B00A800C8
:1000B00028302B0027020318602803302B00A800EB
:1000C00020008D1B662805302B00A8002B00280877
:1000D0002B002906031D7A2800302B002804031961
:1000E0007A2800302B002A04031D7A282B002808C8
:1000F0002900E900AC282B002B08023A031D8828B0
:10010000073094318324803103302B00AB00AC28BE
:100110002B002B08033A031D982821001B082900F7
:10012000E7002900D900DA0104302B00AB00AC282D
:100130002B002B08043A031DA0280530AB00AC2887
:100140002B002B08053A031DA728AB01AC2806306D
:100150002B002B020318AB0109002800A3007F0825
:10016000A2007E08A1007D082800B3002800A0009E
:100170007C08A7007B08A6007A08A500790828005B
:10018000B7002800A40021082800B4002800220895
:100190002800B500280023082800B60028002508FC
:1001A0002800B800280026082800B90028002708E1
:1001B0002800BA00280033082800A00028003408CE
:1001C0002800A100280035082800A20028003608D1
:1001D0002800A3002008210422042304031906296F
:1001E000280037082800A000280038082800A100AF
:1001F000280039082800A20028003A082800A30097
:100200002008210422042304031D0E290030FD00D0
:100210000030FE000030FF0000307A2B2800330849
:100220002800A000280034082800A1002800350874
:100230002800A200280036082800A3008039031DEA
:100240000130A400280037082800A0002800380842
:100250002800A100280039082800A20028003A0838
:100260002800A3008039031D0130A5002406A0004A
:10027000280033082800A100280034082800A20024
:10028000280035082800A300280036082800A4000C
:10029000230D240DA100A500A601A60DA701A8010C
:1002A000A201A301A4018230A107FF30031CA20711
:1002B000FF30031CA307FF30031CA4072108A5007F
:1002C0002208A600280037082800A10028003808C6
:1002D0002800A200280039082800A30028003A08B6
:1002E0002800A400230D240DA100A700A801A80D3B
:1002F000A901AA01A201A301A4012508A7002608BB
:10030000A8000030A81BFF30AA00A9002108270779
:10031000A10028080318280FA20729080318290F8D
:10032000A3072A0803182A0FA4072108A5002208FA
:10033000A600280033082800A1002800340828005F
:10034000A200280035082800A3002800360828004D
:10035000A400A313A401A31721082800B3002800B8
:1003600022082800B400280023082800B500003027
:10037000B600280037082800A10028003808280007
:10038000A200280039082800A30028003A08280005
:10039000A400A313A401A31721082800B700280074
:1003A00022082800B800280023082800B9000030DF
:1003B000BA00280033082800A100280034082800CB
:1003C000A700A200280035082800A800A3002800E4
:1003D00036082800A900A400AA0128003708280030
:1003E000A100280038082800AB00A2002800390826
:1003F0002800AC00A30028003A082800AD00A400A3
:10040000AE012B08F9002C08FA002D08FB00003083
:10041000FC002708FD002808FE002908FF00003026
:100420009A314A2282312800A4007F08A3007E0866
:10043000A2007D08A100280033082800A70028009A
:1004400034082800A800280035082800A900280042
:1004500036082800AA00A801A901AA012800370827
:100460002800AB00280038082800AC002800390814
:100470002800AD0028003A082800AE00B2012C0880
:10048000AF00F9002D08B000FA002E08B100FB0003
:100490000030FC002708FD000030FE000030FF00A7
:1004A00000309A314A2282312800AD00AA007F082C
:1004B000AC00A9007E08A8007D08A700AE012808AE
:1004C000AB00A1072C0803182C0FA2072D08031856
:1004D0002D0FA3072E0803182E0FA4072800370896
:1004E0002800A700280038082800A800280039089C
:1004F0002800A90028003A082800AA00A801A9019C
:10050000AA01280033082800AB002800340828007E
:10051000AF00AC00280035082800B000AD0028006E
:1005200036082800B100AE00B2012F08F9003008EB
:10053000FA003108FB000030FC002708FD00003005
:10054000FE000030FF0000309A314A22823128003C
:10055000AD00AA007F08AC00A9007E08AB00A8008F
:100560007D08A700AE012B08A1072C0803182C0F4B
:10057000A2072D0803182D0FA3072E0803182E0F0E
:10058000A4074030A1070318A20A0319A30A0319FC
:10059000A40AA41FDB2A4030A1070318A20A0319EA
:1005A000A30A0319A40A2208A1002308A200240810
:1005B000A300A401E92A2800210D220DA100230D8A
:1005C000A200240DA300A401A40DFF30A507031C65
:1005D000A6032800A3132608803E7F3E031DF22AAF
:1005E00000302502031C172B280020080319FE2ABF
:1005F000A701A801A9018030AA00032B2800A701A8
:10060000A801A901AA012800A9177F30AA04270878
:100610002800B300280028082800B4002800290872
:100620002800B50028002A082800B600632B031410
:100630002800A61F0310031C232B2800B301B401BC
:10064000B501B601632B00302800200403192E2BBE
:10065000A001A701A8018030A900332B2800A00128
:10066000A701A801A90128002508AA002608AB00B7
:100670000030AB1BFF30AD00AC002B0C2A0CAF00E0
:10068000AE01AE0CA601A5010030A0040030A70405
:100690002E08A8042F08A9042008A1042708A204F2
:1006A0002808A3042908A40421082800B30028006E
:1006B00022082800B400280023082800B5002800DC
:1006C00024082800B600280033082800A0002800CD
:1006D00034082800A100280035082800A2002800BE
:1006E00036082800A3002008FD002108FE0022088B
:1006F000FF00230808002000C3007F08C2007E0816
:10070000C1007D082000D8002000C0007C08C70080
:100710007B08C6007A08C50079082000DC002000AC
:10072000C400C801C901CA01CB0141082000D90099
:10073000200042082000DA00200043082000DB00EF
:10074000200045082000DD00200046082000DE00D3
:10075000200047082000DF00200058082000C000CB
:10076000200059082000C10020005A082000C200C3
:1007700020005B082000C3004008410442044304F9
:10078000031DDA2B20005C082000C00020005D085B
:100790002000C10020005E082000C20020005F0889
:1007A0002000C3004008FD004108FE004208FF0091
:1007B00043082F2E20005C082000C00020005D08A8
:1007C0002000C10020005E082000C20020005F0859
:1007D0002000C3004008410442044304031D082CC8
:1007E000200058082000C000200059082000C10047
:1007F00020005A082000C20020005B082000C3002F
:100800004008FD004108FE004208FF0043082F2E6B
:10081000200058082000C000200059082000C10016
:1008200020005A082000C20020005B082000C300FE
:10083000420D430DC000C400C501C50DC601C7016E
:10084000C101C201C3014008C4000030C50020003E
:100850005C082000C00020005D082000C1002000CE
:100860005E082000C20020005F082000C300420D87
:10087000430DC000C600C701C70DCC01CD01C101A9
:10088000C201C3010030C70019304607C000C101D2
:10089000C10D4708C1074108803ECE004508803E93
:1008A0004E02031D552C4408400203186F2C2000F3
:1008B00058082000C000200059082000C100200076
:1008C0005A082000CC0020005B082000CD00400822
:1008D000FD004108FE004C08FF004D082F2E193086
:1008E00020004407C000C101C10D4508C1074108EF
:1008F000803ECE004708803E4E02031D812C4608F4
:10090000400203189B2C20005C082000C00020003F
:100910005D082000C10020005E082000CC002000FF
:100920005F082000CD004008FD004108FE004C0893
:10093000FF004D082F2E200058082000C000200086
:1009400059082000C10020005A082000CC002000D7
:100950005B082000CD00CC13CD01CC1720005C0833
:100960002000CE0020005D082000CF0020005E089F
:100970002000D00020005F082000D100D013D1015A
:10098000D017200058082000D2002000590820006D
:10099000D30020005A082000D40020005B0820006B
:1009A000D5008039031D0130D60056080319E32C09
:1009B000C009C109CC09CD09C00A0319C10A03192C
:1009C000CC0A0319CD0A20005C082000D2002000C8
:1009D0005D082000D30020005E082000D400200025
:1009E0005F082000D5008039031D0130D60056086D
:1009F0000319052DCE09CF09D009D109CE0A031953
:100A0000CF0A0319D00A0319D10A20004708803EF3
:100A1000D7004508803E5702031D102D44084602AA
:100A20000318372D200046084402D2004708031C53
:100A3000470A4502D3005208D21B2D2D003C031952
:100A4000362D03102000D11B0314D10CD00CCF0C79
:100A5000CE0C013E031C212D362D03102000CE0D9F
:100A6000CF0DD00DD10D013E031C2E2D602D200089
:100A700044084602D2004508031C450A4702D30039
:100A80005208D21B522D003C03195B2D031020008D
:100A9000CD1B0314CD0CCC0CC10CC00C013E031CAF
:100AA000462D5B2D03102000C00DC10DCC0DCD0DCA
:100AB000013E031C532D20004608C4004708C50012
:100AC00020004E08C0074F0803184F0FC1075008F9
:100AD0000318500FCC0751080318510FCD0703140A
:100AE000CD1F0310031C852DC009C109CC09CD09F8
:100AF000C00A0319C10A0319CC0A0319CD0AC80197
:100B0000C901CA018030CB00942D20004008410467
:100B10004C044D04031D942D0030FD000030FE00F8
:100B20000030FF0000302F2E20004008C600410892
:100B3000C7004C08CE004D08CF0000304F02031D07
:100B4000AB2D80304E02031DAB2D00304702031D3C
:100B5000AB2D003046020318B82D03102000C00D45
:100B6000C10DCC0DCD0DFF30C407031CC503942D62
:100B700020004008C6004108C7004C08CE004D08C0
:100B8000CF00FF390319DA2D401CCE2D0230C007EB
:100B90000318C10A0319CC0A0319CD0A0310200057
:100BA000CD1B0314CD0CCC0CC10CC00CC40A031912
:100BB000C50AB82D20004608C0004708C1007F3094
:100BC0004E05CC004F08CD004408C6004508C700BC
:100BD0000030C71BFF30CF00CE00470C460CD100C1
:100BE000D001D00CC501C4010030C8040030C904D4
:100BF0005008CA045108CB044008C400480420002F
:100C0000D8002000C0004108C50049042000D900D8
:100C10002000C1004C08C6004A042000DA00200071
:100C2000CC004D08C7004B042000DB002000CD00A5
:100C3000200058082000C000200059082000C100F2
:100C400020005A082000C40020005B082000C500D6
:100C50004008FD004108FE004408FF004508080068
:100C600000340034003400340034003400342F34B5
:100C700000340034003407340034073400341434B2
:100C80007F3414347F34143424342A347F342A34A7
:100C90001234C434C834103426344634363449341B
:100CA00055342234503400340534033400340034D5
:100CB00000341C34223441340034003441342234B2
:100CC0001C340034143408343E34083414340834EA
:100CD00008343E340834083400340034503430349E
:100CE00000341034103410341034103400346034B4
:100CF00060340034003420341034083404340234B6
:100D00003E345134493445343E34003442347F3427
:100D1000403400344234613451344934463421344F
:100D2000413445344B3431341834143412347F3464
:100D30001034273445344534453439343C344A344E
:100D400049344934303401347134093405340334BE
:100D50003634493449344934363406344934493414
:100D600029341E3400343634363400340034003430
:100D700056343634003400340834143422344134C8
:100D8000003414341434143414341434003441341E
:100D90002234143408340234013451340934063412
:100DA00032344934593451343E347E3411341134A0
:100DB00011347E347F3449344934493436343E3436
:100DC00041344134413422347F344134413422347B
:100DD0001C347F3449344934493441347F34093434
:100DE0000934093401343E344134493449347A34C5
:100DF0007F340834083408347F34003441347F347D
:100E0000413400342034403441343F3401347F34A1
:100E100008341434223441347F3440344034403474
:100E200040347F3402340C3402347F347F34043451
:100E3000083410347F343E344134413441343E343C
:100E40007F3409340934093406343E344134513492
:100E500021345E347F34093419342934463446341D
:100E60004934493449343134013401347F34013454
:100E700001343F344034403440343F341F34203454
:100E8000403420341F343F344034383440343F340D
:100E9000633414340834143463340734083470343D
:100EA0000834073461345134493445344334003410
:100EB0007F3441344134003455342A3455342A3493
:100EC00055340034413441347F3400340434023426
:100ED000013402340434403440344034403440342B
:100EE0000034013402340434003420345434543493
:100EF000543478347F3448344434443438343834C7
:100F0000443444344434203438344434443448344D
:100F10007F343834543454345434183408347E34E0
:100F20000934013402340C345234523452343E34D5
:100F30007F340834043404347834003444347D3449
:100F4000403400342034403444343D3400347F3461
:100F50001034283444340034003441347F34403475
:100F600000347C3404341834043478347C34083449
:100F70000434043478343834443444344434383415
:100F80007C341434143414340834083414341434D1
:100F900018347C347C340834043404340834483441
:100FA000543454345434203404343F3444344034BE
:100FB00020343C344034403420347C341C342034DD
:100FC000403420341C343C344034303440343C34DD
:100FD000443428341034283444340C3450345034DD
:100FE00050343C344434643454344C3444345634F3
:100FF0006F346C347434733420344334003400342C
:101000009531572588319531842588310230FF008C
:1010100003309431D32488311030FF0002309431F2
:10102000D324883117302A00E300B730E400D130F0
:10103000E500B930E600EA30E700B230E800983069
:10104000E900BB30EA007F30EB006A30EC00BC30D6
:10105000ED003C30EE002800E201E301E401E5018F
:101060005230E600B830E7007730E8004230E9005F
:10107000CD30EA00CC30EB00C730EC00C230ED00E0
:101080002B00A0012B00A1012900EB0101302B0056
:10109000A2002B00A30100302B00220403196C28AE
:1010A000A20100309631912688312900EE012900F5
:1010B0006E08C73E2C00A40000300318013EA500B6
:1010C0002408840025088500203080002900EE0ACD
:1010D0000A306E02031C57280030FF0000309531A3
:1010E000B5258831003029006B04031D0F29290024
:1010F000EA01BF2600302B00230403198F28873014
:101100002C00A500F730A4008030A6002408FE00C3
:101110002508FF0026089531E82588319E289F3054
:101120002C00A500B630A4008030A6002408FE00E4
:101130002508FF0026089531E825883100302B006E
:1011400023040319C22804302C00A5006230A40037
:10115000A6012408FA002508FB000030FC00290045
:101160004108FD004208FE004308FF0044088D319D
:10117000EA2588312900C4007F08C3007E08C20028
:101180007D08C1009F302C00A500DA30A40080301B
:10119000A600FF30F5002408F6002508F700260811
:1011A000F8000230F9000030FA000330FB00023092
:1011B000FC0029004108FD004208FE004308FF0032
:1011C00044088D313825883100302900690403191D
:1011D0000F296908033A031DF32801302900EB00A9
:1011E00001302B00A20029006908043A031DFE28E3
:1011F00003302900EB0001302B00A2002900690810
:10120000053A031D0D2900302B00230403190A2978
:10121000A3010D2901302B00A3002900E9012900B9
:101220006B08013A031DF02A003029006A04031DEF
:101230001B290130EA00BF2600302B0023040319CC
:1012400031299F302C00A500BC30A4008030A600BE
:101250002408FE002508FF0026089531E82589317D
:1012600040299F302C00A500D230A4008030A60079
:101270002408FE002508FF0026089531E82589315D
:1012800029006A08013A031D4E299A302900C90035
:101290009930CA00D930CB004030CC0029006A0810
:1012A000023A031D5A292900C901CA01EB30CB00BB
:1012B0004330CC0029004908F9004A08FA004B08DD
:1012C000FB004C08FC0027006C08FD006D08FE00C8
:1012D0006E08FF006F089031002089312900C80096
:1012E0007F08C7007E08C6007D08C5002900CD0123
:1012F0004030CE009C30CF004530D00028006F0831
:10130000803E7F3E031D86292D306E02031C8B2AF2
:1013100029004508F9004608FA004708FB0048087C
:10132000FC0029004108FD004208FE004308FF00C0
:1013300044089031002089312900D0007F08CF0077
:101340007E08CE007D08CD0029005508F90056081A
:10135000FA005708FB005808FC0029004D08FD0062
:101360004E08FE004F08FF0050088031AD20893143
:101370002C00A7007F08A6007E08A5007D08A40019
:1013800029004D08F9004E08FA004F08FB005008EC
:10139000FC0029005508FD005608FE005708FF0014
:1013A00058089631BA2689312C00AB007F08AA0074
:1013B0007E08A9007D08A800F9002908FA002A087B
:1013C000FB002B08FC002408FD002508FE00260871
:1013D000FF0027089031002089312900D0007F08C4
:1013E000CF007E08CE007D08CD0000302B00230406
:1013F00003193C2A04302C00A5006230A400A60189
:101400002408FA002508FB000030FC0029004D08E4
:10141000FD004E08FE004F08FF0050088D31EA2500
:101420008A312900D0007F08CF007E08CE007D08D9
:10143000CD0080302C00A5000330A4008030A60031
:10144000FF30F5002408F6002508F7002608F8000C
:101450000230F9000030FA000230FB000130FC00DD
:1014600029004D08FD004E08FE004F08FF005008FF
:101470008D3138258A318B2A0030F9003830FA0056
:101480009C30FB004530FC0029004D08FD004E0853
:10149000FE004F08FF005008983100208A312C00D0
:1014A000A40024080319762A9F30A500D630A40092
:1014B0008030A600FF30F5002408F6002508F7006C
:1014C0002608F8000230F9000030FA000230FB0074
:1014D0000130FC0029004D08FD004E08FE004F08B9
:1014E000FF0050088D3138258A318B2A0230FF00E9
:1014F00000309531B5258A319F302C00A500C830C9
:10150000A4008030A6002408FE002508FF0026085D
:101510009531E8258A310030F9000030FA00C830F2
:10152000FB004230FC0029004D08FD004E08FE0083
:101530004F08FF005008983100208A312C00A40089
:1015400024080319A62A01302900EA000030F90016
:101550000030FA004830FB004330FC0029004D0801
:10156000FD004E08FE004F08FF0050089831C720CC
:101570008A312C00A40024080319C12A0230290052
:10158000EA000030290069040319F02A6908033AC7
:10159000031DD52A02302900EB002B00A001FF30EB
:1015A0002900ED0001302B00A20029006908043A4F
:1015B000031DDF2A2900EB0101302B00A2002900C6
:1015C0006908053A031DEE2A00302B002304031995
:1015D000EB2AA301EE2A01302B00A3002900E90128
:1015E00029006B08023A031DB02C0030FF000030C8
:1015F0009531B5258A319F302C00A500CD30A4004F
:101600008030A6002408FE002508FF00260895313A
:10161000E8258B310130FF0000309531B5258B3145
:101620002B0021082C00A4003030A4072408963198
:101630001C268B310430FF002B0021089F316E27C0
:101640008B312C00A400A5012408623EA4000030C8
:101650000318250F043EA5002408840025088500F2
:101660000008A600013100082C00A7000131000885
:101670002C00A800013100082C00A9009F30A50013
:10168000DD30A4008030AA0029006D08F5002C0090
:101690002408F6002508F7002A08F8000230F900AF
:1016A0000030FA000330FB000330FC002608FD0088
:1016B0002708FE002808FF0029088D3138258B31C6
:1016C0000030290069040319B02C6908013A031D90
:1016D000E82B00302B0020040319E32B0430FF001B
:1016E0002B0021089F316E278B312C00A400A5010F
:1016F0002408623EA40000300318250F043EA50014
:1017000024088400250885000008A600013100088F
:101710002C00A700013100082C00A80001310008AE
:101720002C00A9000430FF0029006D089F316E27AE
:101730008B312C00AA00AB012A08203EAA00003001
:1017400003182B0F003EAB002A0884002B088500ED
:101750000008AC00013100082C00AD000131000888
:101760002C00AE00013100082C00AF002C08F9005D
:101770002D08FA002E08FB002F08FC002608FD00AB
:101780002708FE002808FF00290883317B238B31BE
:101790002C00A9007F08A8007E08A7007D08A600ED
:1017A00024088400250885002608800001312C00CB
:1017B0002708800001312C002808800001312C000E
:1017C00029088000E82B03302B002102031CA10A0A
:1017D00029006908023A031D6C2C00302B002004FC
:1017E0000319672C0430FF002B0021089F316E275E
:1017F0008B312C00A400A5012408623EA400003017
:101800000318250F043EA500240884002508850040
:101810000008A600013100082C00A70001310008D3
:101820002C00A800013100082C00A9000430FF00A2
:1018300029006D089F316E278C312C00AA00AB0166
:101840002A08203EAA00003003182B0F003EAB00F0
:101850002A0884002B0885000008AC00013100082C
:101860002C00AD00013100082C00AE000131000851
:101870002C00AF002C08F9002D08FA002E08FB0000
:101880002F08FC002608FD002708FE002808FF009E
:1018900029089631BA268C312C00A9007F08A800AF
:1018A0007E08A7007D08A60024088400250885007E
:1018B0002608800001312C002708800001312C000F
:1018C0002808800001312C00290880006C2C003091
:1018D0002B002104031DA10329006908033A031DFD
:1018E000832C00302B00200403197D2C0A302900A2
:1018F0006D020318832CED0A832C03302900EB00C2
:1019000001302B00A20029006908043A031D9A2C1B
:1019100000302B0020040319942C003029006D04A2
:1019200003199A2CED039A2C01302900EB000130A9
:101930002B00A20029006908053A031DAE2C0030D7
:101940002B002004031DA92C0130A0002900ED016B
:10195000AE2C2B00A001FF302900ED002900E90189
:1019600029006B08033A031D4B280030FF000030AC
:101970009531B5258C319F302C00A500C230A400D4
:101980008030A6002408FE002508FF0026089531B7
:10199000E8258C310230FF0000309531B5258C31BF
:1019A00003102900670C2C00A400A500A601BA3082
:1019B0002507A400FF30A70000300318260FA70753
:1019C0000330FD000030FE002408FF0027089B3193
:1019D0009F238C312C00A5007F08A4002900E7007C
:1019E00067082C00A400A5010030A700C730A6009E
:1019F000A8010230FB002608FC002708FD0000308B
:101A0000FE002408FF000030933154238D31003054
:101A10002C00A500C730A400A6012408FE0025085C
:101A2000FF0000309531E8258D3100302900690430
:101A300003194B2801302B00A20029006908033A42
:101A4000031D242D2900EB0129006908043A031D18
:101A50002C2D02302900EB0029006908053A031DEE
:101A6000342D943133248D312900E9014B280800AD
:101A70002C00C5007F08C4007E08C3007D08C2009A
:101A80007C08C6007B08C7007A08C8007908C9002E
:101A90007808CC007708CB007608CA007508CD001E
:101AA0000030F9000030FA000030FB000030FC008C
:101AB0004208FD004308FE004408FF004508983135
:101AC00000208D312C00CE004E080319722D2D30D0
:101AD0002100C7002C004508803AC500440843088F
:101AE0004208752D20302100C70000302C00CF00A7
:101AF000C830CE004708F8004608F9004E08FA0042
:101B00004F08FB000030FC004208FD004308FE00C7
:101B10004408FF00450892317B228D312C00C20021
:101B2000C20A4A08C3004B08C4004C08C5002C0078
:101B30004308FE004408FF0045089E311C268D31F5
:101B40002C00C60046080319BB2D4208C700C20A74
:101B50004708C73EC70000300318013ECA00C30A49
:101B60000319C40A0319C50A470884004A088500F6
:101B700046088000972D2C004908FF004808953141
:101B8000B5258D312C004D08FF3A0319DB2D4D088A
:101B9000C73ECD0000300318013EC2004D0884004E
:101BA000420885000008C300C3174D08840042089E
:101BB00085004308800000302C00C300C730C200FD
:101BC000C4014208FE004308FF0000309531E825BB
:101BD0008D3108002C00B3007F08B2007E08B100F0
:101BE0007D08B0007C08B6007B08B5007A08B40018
:101BF000FE003508FF0036089D31E9258D312C00A7
:101C0000BA007F08B9007E08B8007D08B700300828
:101C1000F9003108FA003208FB003308FC003708ED
:101C2000FD003808FE003908FF003A088031AD2079
:101C30008E312C00BA007F08B9007E08B8007D08FC
:101C4000B7003008F9003108FA003208FB00330809
:101C5000FC003708FD003808FE003908FF003A088C
:101C60008031AD208E312C00BA007F08B9007E088B
:101C7000B8007D08B70004303407BB00BC01BC0DC0
:101C80003508BC07BD01BD0D3608BD073B08FE0089
:101C90003C08FF003D089D31E9258E312C00C10034
:101CA0007F08C0007E08BF007D08BE003008F90034
:101CB0003108FA003208FB003308FC003E08FD0042
:101CC0003F08FE004008FF0041088031AD208E3102
:101CD0002C00B3007F08B2007E08B1007D08B00080
:101CE000F9003108FA003208FB003308FC0037081D
:101CF000FD003808FE003908FF003A0883317B23D5
:101D00008E312C00B3007F08B2007E08B1007D0840
:101D1000B0000830B4070318B50A0319B60A34082E
:101D2000FE003508FF0036089D31E9258E312C0074
:101D3000BA007F08B9007E08B8007D08B700F90036
:101D40003808FA003908FB003A08FC003008FD00AA
:101D50003108FE003208FF00330883317B238E31C7
:101D60002C00B3007F08B2007E08B1007D08B000EF
:101D7000FD003108FE003208FF003308080029008A
:101D80006A08943158248E310030FF0000309431BD
:101D900092248E312800EF007F08EE000030FF0013
:101DA0000130943192248E312100EF007F08EE0043
:101DB00028006E08FF006F089F312A278E312C0003
:101DC000A3007F08A2007E08A1007D08A000F90002
:101DD0002108FA002208FB002308FC006F30FD00F8
:101DE0001230FE000330FF0040308031AD208E31D4
:101DF0002C00A3007F08A2007E08A1007D08A0009F
:101E00000030F900FE30FA00FF30FB004630FC00E5
:101E10002008FD002108FE002208FF002308903161
:101E200000208F312700EF007F08EE007E08ED00D4
:101E30007D08EC0021006E08FF006F089F312A2703
:101E40008F312C00A3007F08A2007E08A1007D082E
:101E5000A000F9002108FA002208FB002308FC007A
:101E60005830FD003930FE00B430FF004130803181
:101E7000AD208F312C00A3007F08A2007E08A100B6
:101E80007D08A0000030F900FE30FA00FF30FB00B2
:101E90004630FC002008FD002108FE002208FF005B
:101EA0002308903100208F312900C4007F08C3002F
:101EB0007E08C2007D08C10005302C00A1006330FF
:101EC000A000A2012008FA002108FB000030FC005D
:101ED00029004108FD004208FE004308FF004408B5
:101EE0008D31EA258F312C00A3007F08A2007E08E7
:101EF000A1007D08A000F9002108FA002208FB00DB
:101F00002308FC0029004108FD004208FE004308A8
:101F1000FF00440883317B238F312900C4007F08F0
:101F2000C3007E08C2007D08C10008002900AB0084
:101F30007F08AA007E08A9007D08A8000314AB1F33
:101F40000310031CD12F2809AC002909AD002A0970
:101F5000AE002B09AF00AC0A0319AD0A0319AE0A93
:101F60000319AF0A2C08FD002D08FE002E08FF0003
:101F70002F089A31F5228F312900AF007F08AE007B
:101F80007E08AD007D08AC002F08803AAF002E0817
:101F90002D082C08FD002D08FE002E08FF002F083C
:101FA000EA2F29002808FD002908FE002A08FF0062
:101FB0002B089A31F5228F312900AB007F08AA0047
:101FC0007E08A9007D08A800FD002908FE002A0857
:101FD000FF002B08080003340034FC341734D534D8
:101FE0000434043400344E341F342034003420349C
:0E1FF0000034FF340734AC34053401340034BF
:102000002700CA007F08C9007E08C8007D08270095
:10201000E4002700C7007C08CE007B08CD007A08CA
:10202000CC0079082700E8002700CB0048082700EB
:10203000E500270049082700E60027004A08270096
:10204000E70027004C082700E90027004D0827007B
:10205000EA0027004E082700EB002700640827004D
:10206000CB00C700270065082700CC00C800270068
:1020700066082700CD00C900270067082700CE00AA
:10208000CA004D0D4E0DCB00C700C801C80DC901D7
:10209000CA01CC01CD01CE014B08C7000030C800F9
:1020A000270068082700CD00C9002700690827001D
:1020B000CE00CA0027006A082700CF00CB00270007
:1020C0006B082700D000CC004F0D500DCD00C9008B
:1020D000CA01CA0DCB01CC01CE01CF01D001470806
:1020E000C9004808CA000030CA1BFF30CC00CB0032
:1020F0004D084902CD004E08031C4E0F81284A08A6
:10210000832827004A022700CE004F08031C4F0FE8
:102110008B284B088D2827004B022700CF00500842
:10212000031C500A4C02D0004D08C7004E08C800DE
:102130007E30C7070318C80A270064082700CD00AF
:10214000C900270065082700CE00CA0027006608DE
:102150002700CF00CB00270067082700CC00D00065
:102160008039031D0130C900270068082700D1000D
:10217000CD00270069082700D200CE0027006A089A
:102180002700D300CF0027006B082700D000D40021
:102190008039031D0130CD00C906270068082700DB
:1021A000CD00270069082700D10027006A08270012
:1021B000D20027006B082700D3004D0851045204B9
:1021C0005304031D01292700E801E901C030EA009A
:1021D0007F30EB0068082700CD0027006908270042
:1021E000D10027006A082700D20027006B082700CB
:1021F000D3004D08FD005108FE005208FF005308AF
:102200007A2A270064082700CD00270065082700E8
:10221000D100270066082700D200270067082700A2
:10222000D3004D08510452045304031D1F290030EC
:10223000FD000030FE000030FF0000307A2A270049
:1022400064082700D400CD00270065082700D500CA
:10225000D100270066082700D600D20027006708B3
:102260002700D700D3005408CD005508D1007F3097
:102270005605D200D301D217270068082700D800DE
:10228000D400270069082700D900D50027006A0874
:102290002700DA00D60027006B082700DB00D700F4
:1022A0005908D5007F305A05D600D701D61700301F
:1022B000803EDC000030803E5C02031D6929560828
:1022C0005202031D692955085102031D692954084A
:1022D0004D020318752903102700CD0DD10DD20D25
:1022E000D30DFF30C707031CC8032700D801D9014D
:1022F000DA010130DB00DC01DD01DE01DF01270056
:10230000580859045A045B040319C9295308803E2C
:10231000E0005708803E6002031D982956085202CB
:10232000031D982955085102031D982954084D0290
:10233000031CBD2927005C08E0005D08E1005E0881
:10234000E2005F08E30058086004DC0059086104FB
:10235000DD005A086204DE005B086304DF005408F5
:10236000CD025508031C550FD1025608031C560F09
:10237000D2025708031C570FD30203102700CD0DBC
:10238000D10DD20DD30D0310DB0CDA0CD90CD80C07
:102390007F292700DC0A0319DD0A0319DE0A031965
:1023A000DF0AC70A0319C80A0310DF1B0314DF0C76
:1023B000DE0CDD0CDC0C5C08CD005D08D1005E0895
:1023C000D2005F08D3007F305205DE004808803E0F
:1023D0007F3E031DED2900304702031C122A27000F
:1023E00049080319F929CD01D101D2018030D30068
:1023F000FE292700CD01D101D201D3012700D21738
:102400007F30D3044D082700E4002700510827003F
:10241000E500270052082700E600270053082700A0
:10242000E700632A03142700C81F0310031C1E2A99
:102430002700E401E501E601E701632A00302700F7
:1024400049040319292AC901CD01D1018030D200E4
:102450002E2A2700C901CD01D101D201270047084A
:10246000D3004808D4000030D41BFF30D600D5007C
:10247000540C530CD800D701D70CC801C701003049
:10248000C9040030CD045708D1045808D2045C08B0
:10249000C70049042700E4002700DC005D08C800ED
:1024A0004D042700E5002700DD005E08D30051043D
:1024B0002700E6002700DE005F08D4005204270052
:1024C000E7002700DF00270064082700C700270077
:1024D00065082700C800270066082700C9002700F4
:1024E00067082700CD004708FD004808FE0049089E
:1024F000FF004D0808002700BB007F08BA007E08D7
:10250000B9007D08B8007C08BE007B08BD007A08D1
:10251000BC007908BF007808C0003808FD00390801
:10252000FE003A08FF003B089E312E26923127001C
:10253000C2007F08C100FF0042089F312A27923164
:102540002700C6007F08C5007E08C4007D08C300C0
:10255000F9004408FA004508FB004608FC0038086A
:10256000FD003908FE003A08FF003B089631BA2604
:1025700092312700BB007F08BA007E08B9007D08B1
:10258000B8003F08FB003C08FC003D08FD003E0889
:10259000FE004108FF00420854232700BF00C1008D
:1025A000C201400803194A2B4108BC07420803181E
:1025B000420FBD073E080318013EBE002E30FD004D
:1025C0003C08FE003D08FF003E089D31C1259231C8
:1025D0000230FF00270040089F316E27923127000C
:1025E000BF00C3013F08AC3EBF0000300318430FDB
:1025F0009F3EC3003F08FE004308FF0080309D312E
:10260000CC2593312700C5007F08C400FF00450892
:102610009F318E2793312700C5007F08C4007E08B4
:10262000C3007D08BF00F9004308FA004408FB001E
:102630004508FC003808FD003908FE003A08FF0094
:102640003B088031AD2093312700BB007F08BA00E2
:102650007E08B9007D08B800FD003908FE003A0880
:10266000FF003B089E312E2693312700B9007F08DA
:10267000B800BC0A0319BD0A0319BE0A4008FB00D2
:102680003C08FC003D08FD003E08FE003808FF0045
:102690003908542327004108B8004008C100380712
:1026A000C000C00A400808002700AD007F08AC0049
:1026B0007E08B0007D08AF007C08AE007B08B1004A
:1026C000B20127002D08803E803E031D692B01309A
:1026D0002C02031CA12B270032082E07B3002F0861
:1026E0000318013EB40030080318013EB5000A305B
:1026F000FD000030FE002C08FF002D089C313D2419
:1027000093317F082700B600B70030303707B60096
:10271000FD003308FE003408FF0035089D31C12557
:1027200093310A30FD000030FE0027002C08FF0026
:102730002D089B319F2393312700AD007F08AC000B
:10274000BB2B2700310832020318C12B32082E0799
:10275000B3002F080318013EB40030080318013EEF
:10276000B5003030FD003308FE003408FF003508A6
:102770009D31C12593312700B20A32303202031C49
:10278000612B27003208FD002E08FE002F08FF00F5
:102790003008E22327003208AE072F080318013E55
:1027A000AF0030080318013EB0000030FD002E08D5
:1027B000FE002F08FF0030089D31C125933127000E
:1027C000320808002700A2007F08A1007E08A000B0
:1027D0007D08A300A303A4012700230824020318F3
:1027E000322C24082007A50021080318013EA6006A
:1027F00022080318013EA7002508FE002608FF0056
:1028000027089E311C2694312700A80023082007A2
:10281000A90021080318013EAA0022080318013E5E
:10282000AB002908FE002A08FF002B089E311C2659
:102830009431FD0027002508FE002608FF00270828
:102840009D31C125943127002808FD002908FE008C
:102850002A08FF002B089D31C12594312700A40AC6
:10286000A303EC2B080020008D1F332C7830492562
:1028700080303425AE303425422522000E1202303D
:10288000ED2422000E1621009D0122000E148E144C
:102890000E110C118D1221000C108C1080302700AD
:1028A00095009601083020008B00630001000800AD
:1028B0002800E100013A031D622C22008E100E1444
:1028C0000E156F2C28006108023A031D6C2C2200A3
:1028D0008E140E100E116F2C22000E148E14080090
:1028E00021001C082800DE00DF015E08DF00DE0199
:1028F00021001B082800E000DE040030DF045E0831
:10290000FF005F0808002800DC0003105C0DDD00FC
:102910000310DD0D01305D0421009D00F0309E00AC
:102920009D1408002800DA007F08DB0001302B002E
:10293000A40028005A080319A02C51302B00A40031
:10294000031028005B0DDA002B00A4042408FF000C
:102950000030D32422000E120830ED2420000C1A7F
:10296000AE2C1030ED240030ED242B00A4000030FC
:10297000ED242B00A50022000E162B0024082900B0
:10298000E500E6016508E600E5012B0025082800C2
:10299000DA00DB015A082900E5040030E604650886
:1029A000FF00660808002800D7007F08D800033021
:1029B000D7050310570DD9000310D90D4030590425
:1029C0002B00A40022000E122B002408ED24280066
:1029D0005808ED2422000E1608002800D100D4016A
:1029E000D5012800D11FF72C22008C16F92C2200CB
:1029F0008C1203102800D10D22008E160000220038
:102A00008E12000003102800D40DD60120000C1EE9
:102A10000B2D2800D60A28005608013A0319541431
:102A2000D50A08305502031CF12C54080800280070
:102A3000D200240096152000911D1B2D9111240019
:102A400011082800D3005208031D292D24009612D6
:102A50002B2D24009616240016162000911D2D2DD6
:102A60009111280053080800240091002000911DB6
:102A7000362D91110800240096142000911D3D2D43
:102A800091110800240016152000911D442D91116C
:102A900008002800D100240016142000911D4D2D9F
:102AA0009111280051089531342595310800603086
:102AB0002100990023008C018D01C8308E00210077
:102AC0008D1222008D1221000C1122000C15210004
:102AD0000E128C128E1222000E168E1221000E1172
:102AE0000E108E1022000E110E148E1428302400A9
:102AF0009500940104309200823021009500E0306E
:102B000020008B00080008003230FF0000309531B3
:102B10008325953122008D16C830FF000030953195
:102B20008325953178309531492595312800CE019E
:102B300028004E08FC3ECF009E300318013ED00016
:102B40004F08FE005008FF0080309E311C26953152
:102B50009531342595312800CE0A2E304E02031CC3
:102B6000982D95314225953108002800CC007F082A
:102B7000CD002030CC072030CD0778309531492565
:102B800095318030953134259531B0302800CD0411
:102B90004D08953134259531803095313425953166
:102BA00028004C0E0F39CD004D164D0895313425B7
:102BB000953180309531342595310F302800CC0582
:102BC0004C089531342595319531422595310800D1
:102BD0002800C8007F08C7007E08C6000130C90071
:102BE000CA0128004608FE004708FF0048089E3139
:102BF0001C2695312800CB004B080319C901490850
:102C000003190E2E4608FE004708FF0048089E31B3
:102C10001C2696312800CB001C26102E20301C26A6
:102C20002800C60A0319C70A0319C80ACA0A0A30C3
:102C30004A02031CF12D08002800BE0078309531AF
:102C40004925963140309531342596312800BF0111
:102C5000BE1F2C2EFF30BF002800BE133E08C00050
:102C6000C1010030803E803E031D382E20304002DE
:102C700003183D2E20302800BE0028003E08C0006A
:102C8000C101E0304007BE00FF30C2000030031831
:102C9000410FC2073E08C000FD004208C100FE000F
:102CA0000530FF0000309731B02796312800C00072
:102CB0007F08BE00C1012800C200C3010030C5006A
:102CC0004108C4003E07C2004008C300450803187D
:102CD000450FC3074208303EC20043080318430FA4
:102CE000863EC3004208FE004308FF0080309E314C
:102CF0001C2696312800C4003F08C200C4064408C0
:102D00009531342596312800C10A05304102031C53
:102D10005B2E3F0895313425963195314225963109
:102D200008002800BB00BC0128003C08FF00003060
:102D30009531B52596317830953149259631403019
:102D40009531342596312800BD0128003B08953186
:102D5000342596312800BD0A40303D02031CA52EC3
:102D60009531422596312800BC0A04303C02031CF0
:102D7000942E08002A00D6007F08D5007E08D400D3
:102D80007D082A00DB002A00D3007C08DA007B08DB
:102D9000D9007A08D80079082A00DF002A00D70075
:102DA00054082A00DC002A0055082A00DD002A0009
:102DB00056082A00DE002A0058082A00E0002A00EF
:102DC00059082A00E1002A005A082A00E2005F0898
:102DD0002A00D3002A0060082A00D4002A006108D3
:102DE0002A00D5002A0062082A00D600530854049D
:102DF00055045604031D142F2A005B082A00D30033
:102E00002A005C082A00D4002A005D082A00D500A8
:102E10002A005E082A00D6005308FD005408FE0070
:102E20005508FF005608AF2F2A005B082A00D30080
:102E30002A005C082A00D4002A005D082A00D50078
:102E40002A005E082A00D60053085404550456048C
:102E5000031D462F2A005F082A00D3002A006008BD
:102E60002A00D4002A0061082A00D5002A0062083E
:102E70002A00D600803AD600550854085308FD00B1
:102E80005408FE005508FF005608AF2F2A005F08BF
:102E90002A00D3002A0060082A00D4002A00610812
:102EA0002A00D5002A0062082A00DA00D60053085A
:102EB000D7002A00DF002A00D3005408D8002A00D7
:102EC000E0002A00D4005508D9002A00E1002A00B9
:102ED000D50080305A062A00E2002A00D6002A00D7
:102EE0005B082A00D3002A005C082A00D4002A00CC
:102EF0005D082A00D5002A005E082A00D6002A00B4
:102F00005F082A00D7002A0060082A00D8002A009B
:102F100061082A00D9002A0062082A00DA0057084E
:102F2000F9005808FA005908FB005A08FC00530839
:102F3000FD005408FE005508FF00560883317B232E
:102F400097312A00D6007F08D5007E08D4007D087E
:102F5000D300FD005408FE005508FF005608080085
:102F60002100BD007F08BC007E08BF007D08BE00B8
:102F7000C001C1010830C20021003C08C3003D0867
:102F8000C400431CC92F3E08C0073F0803183F0F69
:102F9000C10721003C08C3003D08C4000030C41B29
:102FA000FF30C600C500441CE22FC3014008C50025
:102FB0004108C60000304507C0003E08C4000318A1
:102FC000440FC10721003C08C3003D08C4000310A2
:102FD000440CBD00430CBC000310BE0DBF0D4208E5
:102FE000C300C4014303C300C2004308031DBC2F38
:102FF0004008FF00410808000034E0342B34463418
:103000002A00C5007F08C4007E08C3007D082A008E
:10301000CB002A00C2007C08C9007B08C8007A08DF
:10302000C70079082A00CF002A00C60043082A00FA
:10303000CC002A0044082A00CD002A0045082A00B6
:10304000CE002A0047082A00D0002A0048082A009B
:10305000D1002A0049082A00D2002A004B082A0081
:10306000C2002A004C082A00C3002A004D082A008A
:10307000C4002A004E082A00C5000314C51F03100F
:10308000031C8F282A004F082A00C2002A0050087B
:103090002A00C3002A0051082A00C4002A0052084E
:1030A0002A00C5000314C51F0310031C8F282A0023
:1030B0004F082A00C2002A0050082A00C3002A0034
:1030C00051082A00C4002A0052082A00C5002A001C
:1030D0004B082A00C6002A004C082A00C7002A0014
:1030E0004D082A00C8002A004E082A00C9004508D9
:1030F000803ECA004908803E4A02031D89284808CC
:103100004402031D892847084302031D89284608F5
:10311000420203188D280130C6280030C6282A0034
:103120004B082A00C2002A004C082A00C3002A00CB
:103130004D082A00C4002A004E082A00C5002A00B3
:103140004F082A00C6002A0050082A00C7002A009B
:1031500051082A00C8002A0052082A00C900450860
:10316000803ECA004908803E4A02031DC128480823
:103170004402031DC12847084302031DC128460815
:1031800042020318C5280130C628003008002A0072
:10319000A3007F08A2007E08A1007D082A00A900E4
:1031A0002A00A0007C08A7007B08A6007A08A500DA
:1031B00079082A00AD002A00A40021082A00AA00EC
:1031C0002A0022082A00AB002A0023082A00AC00AB
:1031D0002A0025082A00AE002A0026082A00AF008F
:1031E0002A0027082A00B0002A0029082A00A00087
:1031F0002A002A082A00A1002A002B082A00A2007F
:103200002A002C082A00A3000314A31F0310031C88
:1032100055292A002D082A00A0002A002E082A007D
:10322000A1002A002F082A00A2002A0030082A0044
:10323000A3000314A31F0310031C55292A002D0803
:103240002A00A0002A002E082A00A1002A002F0828
:103250002A00A2002A0030082A00A3002A00290818
:103260002A00A4002A002A082A00A5002A002B0808
:103270002A00A6002A002C082A00A700803EA800E9
:103280002308803E2802031D4F2922082602031D21
:103290004F2921082502031D4F2920082402031865
:1032A000532901308B2900308B292A0029082A0054
:1032B000A0002A002A082A00A1002A002B082A00C0
:1032C000A2002A002C082A00A3002A002D082A00A8
:1032D000A4002A002E082A00A5002A002F082A0090
:1032E000A6002A0030082A00A700803EA800230874
:1032F000803E2802031D862922082602031D8629F6
:1033000021082502031D86292008240203188A2982
:1033100001308B29003008002100A3007F08A200A3
:103320007E08A1007D08A0002100AC00210021083A
:103330002100AD00210022082100AE002100230859
:103340002100AF002C082100A00021002D08210041
:10335000A10021002E082100A20021002F08210039
:10336000A30020082104220423040319D2292100E8
:103370002C082100A400A00021002D082100A50098
:10338000A10021002E082100A600A20021002F0884
:103390002100A300A7008039031D0130A0002008F0
:1033A0000319DA290030FD000030FE000030FF0074
:1033B0000030492A21002C082100A700A00021008C
:1033C0002D082100A800A40021002E082100A9003A
:1033D000A50021002F082100AA00A600290D2A0D12
:1033E000A700A000A401A40DA501A601A801A901A0
:1033F000AA016A30A707FF30031CA807FF30031C8F
:10340000A907FF30031CAA072708A0002808A4006A
:1034100021002C082100A900A50021002D08210071
:10342000AA00A60021002E082100AB00A700210061
:103430002F082100A8002908A5002A08A6007F302F
:103440002B05A700A801A717A009A409A00A031922
:10345000A40A2008A01B382A003C0319412A210095
:10346000A80CA70CA60CA50C013E031C2F2A412A70
:1034700003102100A50DA60DA70DA80D013E031CEC
:10348000392A21002508FD002608FE002708FF0034
:10349000280808002A00B4007F08B3007E08B200A4
:1034A0007D08B1007C08B8007B08B7007A08B60038
:1034B0007908B500B901BA01BB01BC010830BD00F3
:1034C0002A00311C712A3508B90736080318360F4F
:1034D000BA0737080318370FBB0738080318380F27
:1034E000BC072A003108BE003208BF003308C00004
:1034F0003408C1003F1C902A3708C1003608C000BC
:10350000BE010030B9073508BF0003183F0FBA07E6
:1035100040080318400FBB0741080318410FBC07C0
:103520002A003108BE003208BF003308C00034084A
:10353000C100401CAF2A3608C1003508C000BF01D9
:10354000BE010030B907003003183F0FBA0740082A
:103550000318400FBB0741080318410FBC072A009E
:103560003108BE003208BF003308C0003408C10073
:10357000411CCD2A3508C100C001BF01BE01003089
:10358000B907003003183F0FBA0740080318400F6F
:10359000BB0741080318410FBC072A003108BE00D1
:1035A0003208BF003308C0003408C1000310410CCA
:1035B000B400400CB3003F0CB2003E0CB10003104D
:1035C000B50DB60DB70DB80D3D08BE00BF013E03E9
:1035D000BE00BD003E08031D602A3908FD003A0800
:1035E000FE003B08FF003C0808002000E3007F08C5
:1035F000E2007E08E1007D08E000610462046304EB
:10360000031D0A2B0030FD000030FE000030FF00DB
:1036100000309E2B96302000E400E5012000630876
:10362000FF3903191C2B0310E30CE20CE10CE00C36
:10363000E40A0319E50A0E2B003020006302031D83
:103640002B2B80306202031D2B2B00306102031DE7
:103650002B2B003060020318382B03102000E00DE4
:10366000E10DE20DE30DFF30E407031CE5031C2B25
:1036700020006408E6006508E7006108E9007F3083
:103680006205EA00EB016008E800FF3A031D5F2BCA
:103690006908FF3A031D5F2B6A087F3A031D5F2B01
:1036A0006B08003A031D5F2BE001E101E201E30139
:1036B00001306407E600E701E70D6508E707200031
:1036C000E2136608E4006708E5000030E51BFF3000
:1036D000E900E800650C640CEB00EA01EA0CE70184
:1036E000E6010030E0040030E1046A08E2046B08FF
:1036F000E30460082000EC00200061082000ED00D9
:10370000200062082000EE00200063082000EF0087
:103710006C082000E00020006D082000E10020007F
:103720006E082000E20020006F082000E30060081F
:10373000FD006108FE006208FF0063080800210028
:10374000D2007F08D1007E08D4007D08D300031486
:10375000D21F0310031CFB2B0314D41F0310031CE4
:10376000D62B5109D5005209D600D50A0319D60A1D
:103770005508D7005608D8005309D5005409D6007B
:10378000D50A0319D60A5508D900FD005608DA00F3
:10379000FE005708FF0058089E3177269B31210014
:1037A000D6007F08D500FF0056083C2C21005109A7
:1037B000D5005209D600D50A0319D60A5508D700F4
:1037C0005608D8005308D500FD005408D600FE0066
:1037D0005708FF0058089E3177269B312100D600FC
:1037E0007F08D500D509D609D50A0319D60A550888
:1037F000FF0056083C2C03142100D41F0310031CA7
:10380000252C5108D5005208D6005309D700540979
:10381000D800D70A0319D80A5708D900FD0058085C
:10382000DA00FE005508FF0056089E3177269C31CD
:103830002100D6007F08D500D509D609D50A03197D
:10384000D60A5508FF0056083C2C21005108D50027
:103850005208D6005308D100FD005408D200FE00E3
:103860005508FF0056089E3177269C312100D20072
:103870007F08D100FF00520808002100DC007F080B
:10388000DB007E08DE007D08DD000314DC1F031072
:10389000031C932C0314DE1F0310031C742C5B0900
:1038A000DF005C09E000DF0A0319E00A5F08E100BD
:1038B0006008E2005D09DF005E09E000DF0A03192D
:1038C000E00A5F08E300FD006008E400FE00610814
:1038D000FF0062089E31C0269C312100E0007F0875
:1038E000DF00FF006008CE2C21005B09DF005C09CF
:1038F000E000DF0A0319E00A5F08E1006008E20067
:103900005D08DF00FD005E08E000FE006108FF00CA
:1039100062089E31C0269C312100E0007F08DF0054
:10392000FF006008CE2C03142100DE1F0310031CCF
:10393000B72C5B08DF005C08E0005D09E1005E0970
:10394000E200E10A0319E20A6108E300FD006208EF
:10395000E400FE005F08FF0060089E31C0269C3135
:103960002100E0007F08DF00FF006008CE2C21006E
:103970005B08DF005C08E0005D08DB00FD005E081E
:10398000DC00FE005F08FF0060089E31C0269C310D
:103990002100DC007F08DB00FF005C080800EB3042
:1039A000FE008F30FF0080309D31CC259C312100FE
:1039B000B1007F08B000ED30B2008F30B3002100BD
:1039C0003008B4003108B500FF30B007031CB10364
:1039D0003408350403194C2D04303207B400B50106
:1039E000B50D3308B5073408FE003508FF008030F8
:1039F0009D31CC259C312100B7007F08B6003208EC
:103A0000FE003308FF0080309D31CC259D31210020
:103A1000B900B5007F08B800B40002303207B40026
:103A2000B501B50D3308B5073408FE003508FF00B1
:103A300080309D31CC259D312100B500BB007F0831
:103A4000B400BA0021003608BA003708BB00FF30C6
:103A5000B607031CB7033A083B040319462D380880
:103A6000FE003908FF0080309E311C269D31210068
:103A7000BA0034088400350885003A088000B80A86
:103A80000319B90AB40A0319B50A222D0630210018
:103A9000B2070318B30ADF2C883100280800290078
:103AA000A3007F08A2007E08A1007D08A0002104D9
:103AB00022042304031D642D0030FD000030FE00AD
:103AC0000030FF000030C02D0030F9000030FA0057
:103AD0000030FB000030FC0029002008FD00210818
:103AE000FE002208FF002308983100209D312900A4
:103AF000A40024080319A72D2308803AA700200852
:103B0000A400FD002108A500FE002208A600FF0079
:103B1000270899318C219D312900A7007F08A60034
:103B20007E08A5007D08A400A409A509A609A70987
:103B3000A40A0319A50A0319A60A0319A70A240847
:103B4000FD002508FE002608FF002708C02D2900DB
:103B50002008FD002108FE002208FF0023089931FB
:103B60008C219D312900A3007F08A2007E08A100BE
:103B70007D08A000FD002108FE002208FF002308A8
:103B80000800003A0319C52D08007E0884007F084C
:103B900085007D0880000800003A0319D42D803A82
:103BA0000319DC2DFF0100347E0884007F088500A6
:103BB0001200FF00000808009E312926FD00FE0FBC
:103BC000FF03FF0A9E312926FC007D08FF007C08C8
:103BD0000800003A0319F32D803A0319FF2DFD0167
:103BE000FE01FF0100347E0884007F08850012007A
:103BF000FD001200FE001200FF00000808009E31C8
:103C00002926FD00FE0FFF03FF0A9E312926FC0036
:103C1000FE0FFF03FF0A9E312926FB00FE0FFF0364
:103C2000FF0A9E312926FA007D08FD007C08FE006F
:103C30007B08FF007A080800003A0319232E803A17
:103C40000319292E00347E0884007F0885000008AF
:103C500008007F088A007E08820008002900E4002E
:103C60007F08E3007E08E2007D08E100FD006208B5
:103C7000FE006308FF0064089D314F259E31290036
:103C8000E4007F08E3007E08E2007D08E1006408AC
:103C9000803E803E031D562E00306302031D562ECB
:103CA0007F306202031D562EFF306102031C5C2E22
:103CB000FF30FF007F30762E29006408803E813E71
:103CC000031D6C2EFF306302031D6C2E80306202D8
:103CD000031D6C2E013061020318722E0030FF00AC
:103CE0008030762E29006108FF006208080021005C
:103CF000E6007F08E5007E08E8007D08E700E901AE
:103D0000EA010130EB00EC0167086804031D8C2E0A
:103D1000FF30FF00FF30BF2E210067086808ED006C
:103D2000ED1B992E0310E70DE80D0310EB0DEC0DC4
:103D30008C2E21006B086C040319BB2E68086602E8
:103D4000031DA42E67086502031CB32E21006B0817
:103D5000E9076C0803186C0FEA076708E5026808B2
:103D6000031C680FE60203102100E80CE70C0310A7
:103D7000EC0CEB0C992E21006908FF006A08080082
:103D80002900B1007F08B0007E08B3007D08B200B2
:103D90003304031DCF2EFF30FF00FF30FB2E013018
:103DA0002900B400290032083308B500B51BDD2E08
:103DB0000310B20DB30DB40AD22E00302900340422
:103DC0000319F72E33083102031DE82E32083002A2
:103DD000031CF12E29003208B0023308031C330FF4
:103DE000B10203102900B30CB20CB403DD2E29007C
:103DF0003008FF00310808008034AE348034D534F8
:103E0000803480348034A83480341F348034D334F8
:103E10008034003480348D34803414348034403421
:103E20008034A6348034A4348034A0348034C03448
:103E30008034DA34803412348034813480348F34E6
:103E40008034D9348034F1348034DB3480344034ED
:103E50008034AF342900B900B7007F08B600B8003D
:103E60000030B91BFF30BB00BA003808FD0039082C
:103E7000FE003A08FF003B088F3196279F3129004A
:103E8000B9007F08B8007E08B7007D08B600FD00C5
:103E90003708FE003808FF003908080000340034F5
:103EA0000034003400340034C83442340034003468
:103EB000203441340034003480343F340034003442
:103EC00000340034CD34CC34CC343D340A34D734CF
:103ED00023343C346F34123483343A342900BC0028
:103EE0007F08BD00BE010830BF0029003C1C7A2FAE
:103EF0003D08BE0729003C08C0000310400CBC0070
:103F000003103D0DC000BD003F08C0004003C000CD
:103F1000BF004008031D752F3E0808002900E0007F
:103F2000DE007F08DD00DF00FD006008FE000030DD
:103F3000FF0000309A31F5229F312900E0007F0810
:103F4000DF007E08DE007D08DD00FD005E08FE006B
:103F50005F08FF0060080800013400340A340034B0
:103F600064340034E83403341034273456346F3466
:103F70006C347434733400344F3468346D3420340A
:103F8000433400344F3466346634203420340034F3
:103F90002D342D342D342D3400346534643469349B
:103FA000743400344F3468346D34003420346B344E
:0E3FB0002034003420345634003420340034E1
:020000040001F9
:02000E00C439F3
:02001000FF3EB1
:00000001FF
